{
  "transactions": [
    {
      "hash": "0x7c4cfebb4979ba8190e3ad329346f2e41d799e3997a12465d34cc2297fa3fb11",
      "transactionType": "CALL",
      "contractName": "LinkToken",
      "contractAddress": "0x779877a7b0d9e8603169ddbd7836e478b4624789",
      "function": "transferAndCall(address,uint256,bytes)",
      "arguments": [
        "0x9DdfaCa8183c41ad55329BdeeD9F6A8d53168B1B",
        "30000000000000000",
        "0x1f7b7c8441d84839cec9e987e4b8cf9ac5537b59e6d06ca4607d40c52cd7aee4"
      ],
      "transaction": {
        "from": "0xcbdc15ad58a24723e7764be613bf28cacc3a66d6",
        "to": "0x779877a7b0d9e8603169ddbd7836e478b4624789",
        "gas": "0x1a8ee",
        "value": "0x0",
        "input": "0x4000aea00000000000000000000000009ddfaca8183c41ad55329bdeed9f6a8d53168b1b000000000000000000000000000000000000000000000000006a94d74f430000000000000000000000000000000000000000000000000000000000000000006000000000000000000000000000000000000000000000000000000000000000201f7b7c8441d84839cec9e987e4b8cf9ac5537b59e6d06ca4607d40c52cd7aee4",
        "nonce": "0x5d",
        "chainId": "0xaa36a7"
      },
      "additionalContracts": [],
      "isFixedGasLimit": false
    }
  ],
  "receipts": [
    {
      "status": "0x1",
      "cumulativeGasUsed": "0xd52ce5",
      "logs": [
        {
          "address": "0x779877a7b0d9e8603169ddbd7836e478b4624789",
          "topics": [
            "0xddf252ad1be2c89b69c2b068fc378daa952ba7f163c4a11628f55a4df523b3ef",
            "0x000000000000000000000000cbdc15ad58a24723e7764be613bf28cacc3a66d6",
            "0x0000000000000000000000009ddfaca8183c41ad55329bdeed9f6a8d53168b1b"
          ],
          "data": "0x000000000000000000000000000000000000000000000000006a94d74f430000",
          "blockHash": "0xbb88e20cecd79f25f2a5f1b11bea7a2a74d669d905385a4ec160ecc7d0664dcb",
          "blockNumber": "0x6da202",
          "transactionHash": "0x7c4cfebb4979ba8190e3ad329346f2e41d799e3997a12465d34cc2297fa3fb11",
          "transactionIndex": "0x110",
          "logIndex": "0x8a",
          "removed": false
        },
        {
          "address": "0x779877a7b0d9e8603169ddbd7836e478b4624789",
          "topics": [
            "0xe19260aff97b920c7df27010903aeb9c8d2be5d310a2c67824cf3f15396e4c16",
            "0x000000000000000000000000cbdc15ad58a24723e7764be613bf28cacc3a66d6",
            "0x0000000000000000000000009ddfaca8183c41ad55329bdeed9f6a8d53168b1b"
          ],
          "data": "0x000000000000000000000000000000000000000000000000006a94d74f430000000000000000000000000000000000000000000000000000000000000000004000000000000000000000000000000000000000000000000000000000000000201f7b7c8441d84839cec9e987e4b8cf9ac5537b59e6d06ca4607d40c52cd7aee4",
          "blockHash": "0xbb88e20cecd79f25f2a5f1b11bea7a2a74d669d905385a4ec160ecc7d0664dcb",
          "blockNumber": "0x6da202",
          "transactionHash": "0x7c4cfebb4979ba8190e3ad329346f2e41d799e3997a12465d34cc2297fa3fb11",
          "transactionIndex": "0x110",
          "logIndex": "0x8b",
          "removed": false
        },
        {
          "address": "0x9ddfaca8183c41ad55329bdeed9f6a8d53168b1b",
          "topics": [
            "0x1ced9348ff549fceab2ac57cd3a9de38edaaab274b725ee82c23e8fc8c4eec7a",
            "0x1f7b7c8441d84839cec9e987e4b8cf9ac5537b59e6d06ca4607d40c52cd7aee4"
          ],
          "data": "0x0000000000000000000000000000000000000000000000000000000000000000000000000000000000000000000000000000000000000000006a94d74f430000",
          "blockHash": "0xbb88e20cecd79f25f2a5f1b11bea7a2a74d669d905385a4ec160ecc7d0664dcb",
          "blockNumber": "0x6da202",
          "transactionHash": "0x7c4cfebb4979ba8190e3ad329346f2e41d799e3997a12465d34cc2297fa3fb11",
          "transactionIndex": "0x110",
          "logIndex": "0x8c",
          "removed": false
        }
      ],
      "logsBloom": "0x00000004000000000000000000000000000000000020000000000000020000000000000000000000000000000000000000000000000000000000000000000000000000000000000000000008000000000000000000000000000020000020000008000000000000000000000000000000000000000000000000000010000040000000000000000000000000010000800000000020000080000000000000000040000000080000000000000000010000200000000000000004000004000000000000000002000000000000000000000000000000000000000100000000000000000010000000000000800000000000000000002000000000000000000000000000",
      "type": "0x2",
      "transactionHash": "0x7c4cfebb4979ba8190e3ad329346f2e41d799e3997a12465d34cc2297fa3fb11",
      "transactionIndex": "0x110",
      "blockHash": "0xbb88e20cecd79f25f2a5f1b11bea7a2a74d669d905385a4ec160ecc7d0664dcb",
      "blockNumber": "0x6da202",
      "gasUsed": "0x133a5",
      "effectiveGasPrice": "0x11dc430d5",
      "from": "0xcbdc15ad58a24723e7764be613bf28cacc3a66d6",
      "to": "0x779877a7b0d9e8603169ddbd7836e478b4624789",
      "contractAddress": null
    }
  ],
  "libraries": [],
  "pending": [],
  "returns": {},
  "timestamp": 1732991736,
  "chain": 11155111,
  "commit": "fcdb1bf"
}