{
  "transactions": [
    {
      "hash": "0x94a16c64dfad33b0d43c066046d875344ac3005f917fb4b12c4092a4c05037f3",
      "transactionType": "CALL",
      "contractName": "LinkToken",
      "contractAddress": "0x779877a7b0d9e8603169ddbd7836e478b4624789",
      "function": "transferAndCall(address,uint256,bytes)",
      "arguments": [
        "0x9DdfaCa8183c41ad55329BdeeD9F6A8d53168B1B",
        "3000000000000000000",
        "0x1f7b7c8441d84839cec9e987e4b8cf9ac5537b59e6d06ca4607d40c52cd7aee4"
      ],
      "transaction": {
        "from": "0xcbdc15ad58a24723e7764be613bf28cacc3a66d6",
        "to": "0x779877a7b0d9e8603169ddbd7836e478b4624789",
        "gas": "0x14cbb",
        "value": "0x0",
        "input": "0x4000aea00000000000000000000000009ddfaca8183c41ad55329bdeed9f6a8d53168b1b00000000000000000000000000000000000000000000000029a2241af62c0000000000000000000000000000000000000000000000000000000000000000006000000000000000000000000000000000000000000000000000000000000000201f7b7c8441d84839cec9e987e4b8cf9ac5537b59e6d06ca4607d40c52cd7aee4",
        "nonce": "0x60",
        "chainId": "0xaa36a7"
      },
      "additionalContracts": [],
      "isFixedGasLimit": false
    }
  ],
  "receipts": [
    {
      "status": "0x1",
      "cumulativeGasUsed": "0xbc4071",
      "logs": [
        {
          "address": "0x779877a7b0d9e8603169ddbd7836e478b4624789",
          "topics": [
            "0xddf252ad1be2c89b69c2b068fc378daa952ba7f163c4a11628f55a4df523b3ef",
            "0x000000000000000000000000cbdc15ad58a24723e7764be613bf28cacc3a66d6",
            "0x0000000000000000000000009ddfaca8183c41ad55329bdeed9f6a8d53168b1b"
          ],
          "data": "0x00000000000000000000000000000000000000000000000029a2241af62c0000",
          "blockHash": "0x892950b16490f7adf3d86bda2eb61c92659d069ce7882fd20ad95020d995754c",
          "blockNumber": "0x6da255",
          "transactionHash": "0x94a16c64dfad33b0d43c066046d875344ac3005f917fb4b12c4092a4c05037f3",
          "transactionIndex": "0xec",
          "logIndex": "0x8d",
          "removed": false
        },
        {
          "address": "0x779877a7b0d9e8603169ddbd7836e478b4624789",
          "topics": [
            "0xe19260aff97b920c7df27010903aeb9c8d2be5d310a2c67824cf3f15396e4c16",
            "0x000000000000000000000000cbdc15ad58a24723e7764be613bf28cacc3a66d6",
            "0x0000000000000000000000009ddfaca8183c41ad55329bdeed9f6a8d53168b1b"
          ],
          "data": "0x00000000000000000000000000000000000000000000000029a2241af62c0000000000000000000000000000000000000000000000000000000000000000004000000000000000000000000000000000000000000000000000000000000000201f7b7c8441d84839cec9e987e4b8cf9ac5537b59e6d06ca4607d40c52cd7aee4",
          "blockHash": "0x892950b16490f7adf3d86bda2eb61c92659d069ce7882fd20ad95020d995754c",
          "blockNumber": "0x6da255",
          "transactionHash": "0x94a16c64dfad33b0d43c066046d875344ac3005f917fb4b12c4092a4c05037f3",
          "transactionIndex": "0xec",
          "logIndex": "0x8e",
          "removed": false
        },
        {
          "address": "0x9ddfaca8183c41ad55329bdeed9f6a8d53168b1b",
          "topics": [
            "0x1ced9348ff549fceab2ac57cd3a9de38edaaab274b725ee82c23e8fc8c4eec7a",
            "0x1f7b7c8441d84839cec9e987e4b8cf9ac5537b59e6d06ca4607d40c52cd7aee4"
          ],
          "data": "0x0000000000000000000000000000000000000000000000002a0cb8f2456f000000000000000000000000000000000000000000000000000053aedd0d3b9b0000",
          "blockHash": "0x892950b16490f7adf3d86bda2eb61c92659d069ce7882fd20ad95020d995754c",
          "blockNumber": "0x6da255",
          "transactionHash": "0x94a16c64dfad33b0d43c066046d875344ac3005f917fb4b12c4092a4c05037f3",
          "transactionIndex": "0xec",
          "logIndex": "0x8f",
          "removed": false
        }
      ],
      "logsBloom": "0x00000004000000000000000000000000000000000020000000000000020000000000000000000000000000000000000000000000000000000000000000000000000000000000000000000008000000000000000000000000000020000020000008000000000000000000000000000000000000000000000000000010000040000000000000000000000000010000800000000020000080000000000000000040000000080000000000000000010000200000000000000004000004000000000000000002000000000000000000000000000000000000000100000000000000000010000000000000800000000000000000002000000000000000000000000000",
      "type": "0x2",
      "transactionHash": "0x94a16c64dfad33b0d43c066046d875344ac3005f917fb4b12c4092a4c05037f3",
      "transactionIndex": "0xec",
      "blockHash": "0x892950b16490f7adf3d86bda2eb61c92659d069ce7882fd20ad95020d995754c",
      "blockNumber": "0x6da255",
      "gasUsed": "0xf0e5",
      "effectiveGasPrice": "0xe0e2dd40",
      "from": "0xcbdc15ad58a24723e7764be613bf28cacc3a66d6",
      "to": "0x779877a7b0d9e8603169ddbd7836e478b4624789",
      "contractAddress": null
    }
  ],
  "libraries": [],
  "pending": [],
  "returns": {},
  "timestamp": 1732992829,
  "chain": 11155111,
  "commit": "fcdb1bf"
}